{
  "contractName": "Functon",
  "abi": [
    {
      "inputs": [],
      "stateMutability": "nonpayable",
      "type": "constructor"
    },
    {
      "inputs": [],
      "name": "totalTokens",
      "outputs": [
        {
          "internalType": "uint256",
          "name": "",
          "type": "uint256"
        }
      ],
      "stateMutability": "view",
      "type": "function",
      "constant": true
    },
    {
      "inputs": [],
      "name": "totalSupply",
      "outputs": [
        {
          "internalType": "uint256",
          "name": "",
          "type": "uint256"
        }
      ],
      "stateMutability": "view",
      "type": "function",
      "constant": true
    }
  ],
  "bytecode": "0x608060405234801561001057600080fd5b50620f424060008190555060e0806100296000396000f3fe6080604052348015600f57600080fd5b506004361060325760003560e01c806318160ddd1460375780637e1c0c09146051575b600080fd5b603d606b565b604051604891906091565b60405180910390f35b60576074565b604051606291906091565b60405180910390f35b60008054905090565b60005481565b6000819050919050565b608b81607a565b82525050565b600060208201905060a460008301846084565b9291505056fea2646970667358221220e19cd5b9d28b9316b86aa4947bfbbe211becf04dcc597435f162a77d7933fa9964736f6c63430008110033",
  "immutableReferences": {},
  "source": "// SPDX-License-Identifier: MIT\r\npragma solidity ^0.8;\r\n\r\ncontract Functon {\r\n    uint256 public totalTokens;\r\n\r\n    // Constructor\r\n    constructor() {\r\n        totalTokens = 1000000;\r\n    }\r\n\r\n    // ERC-721 Implementation\r\n    function totalSupply() public view returns (uint256) {\r\n        return totalTokens;\r\n    }\r\n\r\n}",
  "sourcePath": "C:\\Users\\darsh\\Desktop\\Functon\\contracts\\Functon.sol",
  "compiler": {
    "name": "solc",
    "version": "0.8.17+commit.8df45f5f.Emscripten.clang"
  },
  "schemaVersion": "3.4.10",
  "updatedAt": "2022-12-16T15:37:23.892Z",
  "networkType": "ethereum",
  "devdoc": {
    "kind": "dev",
    "methods": {},
    "version": 1
  },
  "userdoc": {
    "kind": "user",
    "methods": {},
    "version": 1
  }
}